:1000000019C028C027C027C025C024C023C022C0D3
:1000100021C020C01FC01EC01DC01CC01BC01AC0F4
:1000200019C018C017C016C015C014C013C012C024
:1000300011C010C011241FBECFEFD4E0DEBFCDBF72
:1000400021E0A0E0B1E001C01D92A030B207E1F7CD
:1000500023D038C1D5CF1F920F920FB60F92112423
:100060000F900FBE0F901F901895209821982298FE
:10007000289A299A2A9AE8E6F0E0808181608083B4
:10008000EBE6F0E080818160808380818260808304
:100090008081846080830895CF93DF93CDB7DEB7EE
:1000A0002C970FB6F894DEBF0FBECDBF78948FEFBC
:1000B0008AB984B987B9D9DF7BD065D08DE060D0AB
:1000C0004AE0BE016F5F7F4F81E090E0C8D0CE0173
:1000D00001965FD02FEF80E792E021508040904062
:1000E000E1F700C000001BB8F5CF662311F0409A7D
:1000F00001C04098882314F42F9A01C02F9886FFDE
:1001000002C02E9A01C02E9885FF02C02D9A01C010
:100110002D9884FF02C02C9A01C02C980000429AAE
:1001200000C000C0429883FF02C02F9A01C02F98E0
:1001300082FF02C02E9A01C02E9881FF02C02D9A24
:1001400001C02D9880FF02C02C9A01C02C9800009D
:10015000429A00C000C042982F9A2E9A2D9A2C9A4B
:10016000611109C0843038F48FEC9CE00197F1F7FD
:1001700000C0000008959AE69A95F1F700C008952E
:1001800060E0B3DF089581E0FBDF089561E0ADDF5B
:100190000895CF93DF93EC012196FC0180818823A1
:1001A00021F0F4DF89918111FCCFDF91CF91089587
:1001B0003A9A389A399A279A269A259A249A4298EE
:1001C000409841982F9A2E9A2D9A2C9A8FE295E773
:1001D0000197F1F700C000002F982E980000429A76
:1001E00000C000C0429887E090E20197F1F700C09C
:1001F0000000429A00C000C0429887EC90E001974E
:10020000F1F700C00000429A00C000C042989AE690
:100210009A95F1F700C02C980000429A00C000C0E7
:1002200042988AE68A95F1F700C02C980000429A1D
:1002300000C000C0429800C000C02F9A0000429A3F
:1002400000C000C042989AE69A95F1F700C088E095
:1002500097DF99DF86E094DF8CE092DF0895BB277B
:100260004A3031F4992322F4BDE2909581959F4F55
:1002700001C0BB27FB015527AA27880F991FAA1F7A
:10028000A41710F0A41B83955051B9F7A05DAA33B1
:1002900008F0A95DA193009779F7B111B19311927C
:1002A000CB0100C0DC01FC01672F71917723E1F7DE
:1002B000329704C07C916D9370836291AE17BF0733
:0802C000C8F30895F894FFCF84
:00000001FF
