S0170000646973706C61795F70726F6A6563742E73726563C1
S113000019C02BC02AC029C028C027C026C025C0BB
S113001024C023C022C021C020C01FC01EC01DC0D8
S11300201CC01BC01AC019C018C017C016C015C008
S113003014C013C011241FBECFEFD4E0DEBFCDBF68
S113004011E0A0E0B1E0E6EEF1E002C005900D920F
S1130050AC30B107D9F702D0C4C0D2CF8FEF8AB980
S113006084B987B971D05BD080E091E05ED02FEF86
S113007080E792E0215080409040E1F700C000000A
S11300801BB8F5CF662311F0409A01C0409888232D
S113009014F42F9A01C02F9886FF02C02E9A01C033
S11300A02E9885FF02C02D9A01C02D9884FF02C0AE
S11300B02C9A01C02C9883FF02C02B9A01C02B9864
S11300C082FF02C02A9A01C02A9881FF02C0299A9D
S11300D001C0299880FF02C0289A01C02898000016
S11300E0429A00C000C042982F9A2E9A2D9A2C9AB8
S11300F02B9A2A9A299A289A611109C0843038F4D3
S11301008FEC9CE00197F1F700C0000008959AE697
S11301109A95F1F700C0089560E0B4DF089581E096
S1130120FBDF089561E0AEDF0895CF93DF93EC0128
S11301302196FC018081882321F0F4DF89918111CB
S1130140FCCFDF91CF9108953A9A389A399A279A39
S1130150269A259A249A239A229A219A209A429896
S1130160409841982F9A2E9A2D9A2C9A2B9A2A9A33
S1130170299A289A8FE295E70197F1F700C00000C9
S11301802F982E980000429A00C000C0429887E041
S113019090E20197F1F700C00000429A00C000C04D
S11301A0429887EC90E00197F1F700C00000429A72
S11301B000C000C042989AE69A95F1F700C02A98C8
S11301C00000429A00C000C042988AE68A95F1F77E
S11301D000C088E0A1DFA3DF86E09EDF8CE09CDF27
S10901E00895F894FFCF1E
S10F01E648656C6C6F20576F726C6400ED
S9030000FC
